S02B0000433A2F55736572732F487567456C656374726F6E6963612F4465736B746F702F61692D7468696E6B0D
S31588240000214365872D002488000000000000000015
S31588240010FD6305B305B205623019100160DA0597C8
S3158824002000EF03630000248810003082FD6304D027
S3158824003004670BB60BB40562031FE80F006D0AB478
S315882400400AB50BB6031FC40E00650AB2301904001C
S3158824005000DA0597049000EF03630065100000001A
S315882400601000308200003082800624881000000028
S3158824007014003082FD630562409C646704720960BB
S31588240080055A036001720D601910F94A025A1660DE
S315882400900E100DB5809DC19B409C0CB540EA0A6C18
S315882400A00D1009B6609E016C409B09B5051006B2F1
S315882400B0E09A026C409F07B540EA0065059700EFF1
S315882400C00363006514003082800424889404248879
S315882400D0B4042488FC6306D105D007620FB06098DF
S315882400E02467409B016C0EB540EAD1670771056188
S315882400F080980CB5009C40E8016C08B60AB7016A5A
S31588240100A09E40C700F3249D40E900650797069181
S31588240110059000EF0463006514003082D004248897
S31588240120E804248804003082FB6307D0096208D156
S315882401302CB080982CB5209C2CB640E9016C60980C
S315882401402AB4E0F2549B2AB640EA056D0722A09881
S31588240150016CE09D27B540EFC2673D1026B6A0986E
S3158824016040C6209D25B540E9016CE098519F40EA18
S31588240170C86C8098E0F2209C40E9026C6098E0F292
S31588240180449B40EA0065C098E0F2109E40E8046CDF
S3158824019000681E10C140FF692CEE12B160999067E1
S315882401A0E0F2589B40EA04D60497086DEEEDABE856
S315882401B08099ADE8C0F70330ECE8409C10B5016C13
S315882401C040EAD067609982F3086C519B40EA0065BF
S315882401D009B780A7DF2409970891079000EF05635C
S315882401E014003082FC04248810052488D5002488A9
S315882401F020052488040030823405248848052488E8
S31588240200FD6304D015B0C0980562409E14B540EAB3
S31588240210016C8098E0F2A09C40ED026C6098E0F234
S31588240220E49B40EF0065C098E0F2509E40EA0F6C4C
S31588240230A09800F34C9D40EA026C8098519C2EF538
S31588240240106C40EA0065609800F3509B40EA00658C
S315882402500597049000EF036314003082540524889C
S31588240260FD630562C467062405B4609C05B5409B76
S3158824027040EA016C059700EF036300651400308219
S3158824028070052488FB63096207D008D136B0809824
S3158824029036B5209C40E9016C609835B460F2489B59
S315882402A000F6016D40EA006E32B1005240D90860EA
S315882402B0A098016C009D2EB62FB540E8E2674C10B5
S315882402C08098E0F2C09C40EE026CE098006BC0995E
S315882402D004D300F3549F036C28B740EA076D0F2292
S315882402E0C09827B5609E016C40EBC267E09860F29F
S315882402F04C9F40EA8099016DABE800D92D108098EF
S3158824030020B5209C40E9016C0A690B10E098409F2F
S315882403101DB540EA016CA098C0F7106C119D40E881
S315882403200065FF4910B0F2296098409B17B540EACA
S31588240330016CE09800F3389F40E90065A0980DB1D8
S3158824034060F24C9D40EA8099016C8BEE6098C0D906
S31588240350209B0FB540E9016C09970891079000EF17
S315882403600563006514003082C0052488D80524884E
S3158824037000003082E80524886102248800062488BF
S31588240380180624882C0624883C0624884C06248827
S31588240390FD6305620CB4609C82F3086C519B40EA29
S315882403A000653019A1000065301980000065301970
S315882403B04A00006504B6A09EE0F3086C519D40EA85
S315882403C00065F81714003082FA630AD00B6218B0D5
S315882403D0A098006E016F17B408D604D705D606D61A
S315882403E007D44B9D006D14B402F0006F40EAC567AC
S315882403F012B340DB0EB0809811B5539C016B809D57
S315882404006BEE40EA0805F62230191D000894809878
S315882404100895599C40EA839D60980897599B40EA99
S31588240420849FC098199E40E80894E4171400308263
S3158824043058062488910324881C0030821800308228
S31588240440FB6309620AB7809F006E0AB504D605D66F
S3158824045006D607D54B9C006D02F0006F06B440EA99
S31588240460C567099705B340DB00EF0563140030821E
S315882404706C062488C903248818003082000000006A
S3158824048021214E4F2053494D2043415244256421EE
S315882404902121210073797374656D20696E69746965
S315882404A0616C697A6520636F6D706C6574653030AC
S315882404B0000000006E6574776F726B2072656769B9
S315882404C07374657220737563636573733030000043
S315882404D0706C61792063616C6C6261636B20726570
S315882404E073756C743A256400706C6179206D7573A4
S315882404F069632066696C6520656E6400706C6179B1
S31588240500206D75736963202573206E6F77000000CC
S315882405102F742F6D757369632E6D703300000000F8
S31588240520706C6179206D75736963206661696C3A2C
S3158824053025640000706C6179206D757369632073F6
S3158824054075636365737300004551206D6F64653ADE
S3158824055025640000737461727420617564696F20E0
S315882405606C6F6F702074657374206E6F77000000CB
S31588240570617564696F207265636F726420657272AF
S315882405806F723A256400000066696C65206E6F7404
S31588240590206F70656E0000005772697465207265D5
S315882405A0636F7264206661696C6564007265636FC3
S315882405B07264207772697465206C656E3D25640043
S315882405C07265636F726420737461727420666F7245
S315882405D06D617420616D72002F742F7265636F72DA
S315882405E064302E616D7200006F70656E2066696C4A
S315882405F065202573206572726F723A25640000001F
S315882406007265636F7264207374617274206661691B
S315882406106C3A2564000000007265636F7264696EA3
S3158824062067206E6F772E2E2E000000007265636F0A
S315882406307264696E672E2E2E000000007265636FC1
S3158824064072642073746F70206E6F77007265636F1F
S31588240650726420656E6400005365636F6E642054EB
S31588240660657374205461736B000000004D61696E54
S315882406702054657374205461736B00000000000055
S31588240680FFFFFFFF010000000000000000000000BB
S705882400113D
