S02B0000433A2F55736572732F59616B69722F4465736B746F702F61692D7468696E6B65722F475052535F43B6
S31588240000214365872D002488000000000000000015
S31588240010FD6305B305B205623019CE0160DA05970A
S3158824002000EF03630000248850003082FD6304D0E7
S3158824003004670BB60BB40562031FE80F006D0AB478
S315882400400AB50BB6031FC40E00650AB2301904001C
S3158824005000DA0597049000EF0363006560000000CA
S315882400605000308200003082000E24885000000020
S3158824007054003082CD6364D163D065623FB0609882
S3158824008030017C4B5E9B40EA9167052A80983CB573
S31588240090409C026C21106098FD67C0F0C0A7409BE5
S315882400A038B540EA026CDD67C0F0A0A60B2D80988F
S315882400B07C4C389C40E90065592AA098026C409D5E
S315882400C031B50A10C0987C4E5F9E40EA9167082A0B
S315882400D0E098026C409F2DB540EA0065006A471077
S315882400E08098FD67409CC0F0C0A729B540EA026C79
S315882400F07D67C0F020A33A293104006D031FE80FD9
S31588240100C06E24B5C09D9D6731D6E2AD3A6EC0F0E7
S31588240110E8CCC0F00A0420B1031FE80F006D40A183
S315882401207D6700F144C300F10504006D031FE80FC1
S315882401303F6EA0A1DD6740F1A4C640F10504006D99
S31588240140031FE80F3F6E4098006B0405350405109D
S315882401507DE420A761E520C0014BB05BF9617C4A28
S315882401603194329533965A9A40EA3497016A659738
S315882401706491639000EF3363540030824009248865
S31588240180580924886C09248880092488980924880D
S31588240190C008248800092488FD630562656706B536
S315882401A0809DE667409C05B5016C40EAC367059740
S315882401B000EF036354003082AC092488FC6306D19B
S315882401C005D007620CB0809865672767409CFFF73F
S315882401D01F6FECEE016C09B540EAE367017105618E
S315882401E0A098009D06B540E8016C0797069105906E
S315882401F000EF046354003082EC0924881C0A24887E
S31588240200FD630562C467656709B20625409A016C51
S31588240210409A08B5C3670410609A016C409B06B55A
S3158824022040EA0065059700EF036300655400308231
S31588240230340A2488580A2488FB63096208D107D09B
S3158824024024B00AD4809824B5409C016C40EA266759
S315882402506098579B40EA086CC267052AA098016C67
S31588240260409D1EB52E101EB7152980981DB5409C15
S3158824027004D605D740EA016C0493016E20DB0A92E2
S31588240280A36741DB05972098809F1499CBEE40E895
S31588240290006F1210016DA0DA0A94A66781DA409855
S315882402A0809F749A016ECBEE40EB006FA098016C08
S315882402B0009D0DB540E8D16706B1E099016C409F51
S315882402C00AB540EA006509970891079000EF056307
S315882402D054003082780A2488940A248860003082DC
S315882402E0A40A2488C40A2488F00A2488FD6305621B
S315882402F0C56709B2062D609A409B08B540EA016C09
S315882403000510809A06B5409C40EA016C059700EF53
S3158824031003630065540030820C0B2488240B2488BC
S31588240320FD63056207B6E567A09E64677C4D06B4BF
S31588240330449D809C05B640EAA367059700EF03632E
S31588240340540030825C0030824D032488F8630F621F
S315882403500ED10DD020B0C09840F35C9E40EA246725
S31588240360A098016C609D1DB540EBC2671CB4609C47
S31588240370016A4EEB0623E098009F1AB540E8016C83
S315882403802310A098016C409D17B540EA0AD30A9396
S31588240390A098016F026E15B404D705D607D406D360
S315882403A008D340F3589D916711B512B640EA186F61
S315882403B006226098016C009B0FB540E8C26704F753
S315882403C0106C3019C800B1670F970E910D9000EF05
S315882403D00863006554003082480B2488580030828C
S315882403E0580B2488880B2488ED0224889C0B24881F
S315882403F0A00B2488240B2488FD63056207B6E56749
S31588240400A09E64677C4D06B4449D809C05B640EACC
S31588240410A367059700EF0363540030825C0030821B
S3158824042025042488FB63096208D107D01FB1A099C3
S3158824043040F35C9D40EA046780991DB5E09CC267B9
S3158824044040EF016C1BB3409B01720661C099009EE4
S3158824045019B540E8016C2310E099006C17B304D4CD
S3158824046005D340F3449F16B540F71B6E15B740EA6B
S3158824047090671522A099016CE09D13B540EFC26759
S3158824048012B2209A7DF2006BE0F3084963E920DAF8
S31588240490016160DA0DB6809E3019FE00B06709972F
S315882404A00891079000EF056354003082480B24880E
S315882404B058003082BC0B248868003082D00B24886C
S315882404C039022488E00B248844003082FB6307D0D1
S315882404D0096208D1409C04670422016B6EEA2E22A5
S315882404E03410016D1CB1A0D91CB1A1F3186BE09905
S315882404F01BB660DE409F85671AB61BB540EA006541
S3158824050080991AB540F36C9C819819B640EB006F94
S31588240510C09914B504D540F3509E819815B740EAFE
S31588240520026E0622809914B5E09CC26740EF016C5E
S3158824053004F7106C3019C800A198071006B540DD59
S3158824054007B2809A3019FE00A198099708910790D6
S3158824055000EF05635800308254003082440030828C
S315882405609C0B2488000C248899012488BD0124881E
S3158824057001022488280C2488FA630AD00B625CB08A
S31588240580A098006E016F5BB408D604D705D606D624
S3158824059007D44B9D006D58B402F0006F40EAC567B6
S315882405A056B340DB52B0809855B5539C016B809DD9
S315882405B06BEE40EA0805F6220893409B8F42125C2C
S315882405C080F00460040F8436D1E7A08CB9E700EE66
S315882405D0006500653900F900F90025002F004300DD
S315882405E043004300F90043004300F90043004300D5
S315882405F043004300430043004098026C409A41B527
S315882406006310E098026C409F3FB55E106098026C38
S31588240610409B3EB52110FA4A0D5A5860040D44323F
S3158824062059E5808E32B281E500E80065950033006D
S315882406303300A1001B002500A1003D00470051007E
S315882406405B0065007900E09A026C409F30B50410FF
S31588240650609A026C409B2FB540EA00653710009A51
S31588240660026C40982CB51810A09A026C409D2BB524
S315882406701310809A2AB5409C026C0E10C09A026C7C
S31588240680409E28B50910409A026C409A26B50410D3
S31588240690E09A026C409F25B540EA006530191D0012
S315882406A000651410A09A009D21B540E8026C21B3F8
S315882406B0809B0C240EB7C09F5E9E40EA0065061078
S315882406C0809A1DB5409C026C40EAC19B08B08098EC
S315882406D00897599C40EA839FC0980895599E40EA72
S315882406E0849D6098199B40E808945C17540030824E
S315882406F04C0C248881072488600030825C003082F0
S315882407005C0C2488700C2488880C2488A40C24885F
S31588240710BC0C2488D00C2488EC0C2488000D2488CE
S31588240720180D2488300D2488440D24885C0D24884B
S3158824073064003082780D2488FB6308D00DB08098B5
S31588240740006E0DB5096204D605D606D607D54B9C08
S31588240750006D02F0006F09B440EAC567609808B452
S3158824076040DC499B40EA00650997089000EF0563B9
S3158824077054003082800D2488790524885C00308250
S31588240780F8630F620ED10DD03EB1006F409906D71B
S315882407901B9A876740E80AD73BB0809940D8DD9C66
S315882407A0016DABED40EE826760995C9B40EA809848
S315882407B00A96E099C0D8409F016C34B540EA0AD697
S315882407C0A09933B4C0F2109D40E80065809931B56C
S315882407D0409C2FB640EA016C609920F31C9B40E824
S315882407E000652DB09067006D446E031FE80F08D20C
S315882407F027B32AB7146E016A026D29B460D8E1D862
S31588240800E2D8C6C8B8C084D85AC059C025B426B533
S31588240810031BA01109D309978542A767031FC40E12
S315882408200F6EA0991FB6C5D8409DC198E2981FB56A
S3158824083040EA016C0A93809904D305D040F3449CFA
S315882408401BB540F71B6E1BB740EA089406226099AD
S31588240850016C209B18B540E9C2670AB0809817B501
S31588240860539C016E809DCBEE40EA0605F62230190C
S3158824087033010694E098199F40E80694EE1700659C
S315882408805400308264003082900D2488340030826B
S31588240890A00D248868003082A80D2488B00D248869
S315882408A000003082B80D2488C00D2488D00B248873
S315882408B039022488E00B24886000308200000000F6
S315882408C0636D6E657400000000000000000000005F
S315882408D00000000000000000000000000000000066
S315882408E00000000000000000000000000000000056
S315882408F00000000000000000000000000000000046
S315882409000000000000000000000000000000000035
S315882409100000000000000000000000000000000025
S315882409200000000000000000000000000000000015
S315882409300000000000000000000000000000000005
S3158824094067657420617474616368207374617573D0
S31588240950206661696C000000617474616368207321
S3158824096074617475733A2564000000006E65747723
S315882409706F726B20617474616368206661696C0028
S31588240980676574206163746976617465207374619C
S315882409907573206661696C006163746976617465B0
S315882409A0207374617475733A256400004D515454C8
S315882409B0207265636569766564207075626C69736F
S315882409C068206461746120726571756573742C20DE
S315882409D0746F7069633A25732C207061796C6F61A2
S315882409E064206C656E6774683A2564004D51545446
S315882409F0207265636965766564207075626C69732F
S31588240A006820646174612C20206C656E6774683AEA
S31588240A1025642C646174613A257300004D515454BD
S31588240A202064617461206973206C61737420667292
S31588240A30616D65004D515454207375627363726970
S31588240A406265206661696C2C6572726F7220636F29
S31588240A5064653A25640000004D51545420737562A8
S31588240A6073637269626520737563636573732C74A3
S31588240A706F7069633A2573004D51545420636F6EA1
S31588240A806E656374696F6E207374617475733A25A1
S31588240A90640000004D515454206E6F206D656D6F2F
S31588240AA0727900004D515454207375636365656467
S31588240AB020636F6E6E65637420746F2062726F6BA9
S31588240AC0657200004D51545420636F6E6E6563744D
S31588240AD020746F2062726F6B6572206661696C2CD4
S31588240AE06572726F7220636F64653A2564000000AC
S31588240AF04D515454204F6E4D717474436F6E6E6588
S31588240B006374696F6E282920656E64004D51545428
S31588240B10207075626C6973682073756363657373F3
S31588240B20000000004D515454207075626C697368B6
S31588240B30206572726F722C206572726F7220636F51
S31588240B4064653A25640000006D7174742073746139
S31588240B507475733A256400004D515454206E6F740D
S31588240B6020636F6E6E656374656420746F20627209
S31588240B706F6B6572212063616E206E6F7420707529
S31588240B80626C6973680000004D515454204F6E542A
S31588240B90696D65725075626C6973680067707300D5
S31588240BA068656C6C6F2049276D2079616B6972271B
S31588240BB073206D6F64756C6500000000616C7265C6
S31588240BC061647920636F6E6E656374656421000041
S31588240BD03139352E32382E3138312E3431000000D1
S31588240BE04D51545420636F6E6E65637420666169B3
S31588240BF06C2C6572726F7220636F64653A25640003
S31588240C004D51545420636F6E6E65637465642C20CD
S31588240C106E6F772073756273637269626520746FE9
S31588240C207069633A257300004D5154542073756254
S31588240C30736372696265206572726F722C2065721D
S31588240C40726F7220636F64653A2564004D515454DB
S31588240C502054657374205461736B000021214E4F90
S31588240C602053494D20434152442564212121210082
S31588240C70212153494D204341524425642044524FCF
S31588240C80502121212100000073797374656D2069B0
S31588240C906E697469616C697A6520636F6D706C6539
S31588240CA0746500006E6574776F726B2072656769E8
S31588240CB0737465722064656E696564006E6574777D
S31588240CC06F726B207265676973746572206E6F00A4
S31588240CD06E6574776F726B207265676973746572D3
S31588240CE02073756363657373000000006E6574777B
S31588240CF06F726B20646574616368656400000000A4
S31588240D006E6574776F726B2061747461636820660C
S31588240D1061696C65640000006E6574776F726B20F8
S31588240D206174746163682073756363657373000083
S31588240D306E6574776F726B20646561637469766592
S31588240D40640000006E6574776F726B2061637469C2
S31588240D5076617465206661696C6564006E657477EE
S31588240D606F726B20616374697661746520737563A9
S31588240D70636573732E2E00004353513A256400000D
S31588240D804D61696E2054657374205461736B0000B9
S31588240D907374617274206D717474207465737400AD
S31588240DA0494D45493A2573006D71747400000000D5
S31588240DB077696C6C0000000047505253000000008D
S31588240DC02A44454255472A20636C69656E74207582
S31588240DD07365722069733A25732C636C69656E749E
S31588240DE02070617373776F72642069733A25730AE6
S31588240DF00000000000000000000000000000000041
S31588240E004750525320313233343536373839303196
S31588240E103233343520646973636F6E6E65637465A3
S31588240E20642100000000000000000000000000008B
S31588240E300000000000000000000000000000000000
S31588240E4000000000B80B000000000000000000002D
S705882400113D
