S02B0000433A2F55736572732F487567456C656374726F6E6963612F4465736B746F702F61692D7468696E6B0D
S31588240000214365872D002488000000000000000015
S31588240010FD6305B305B205623019F40060DA0597E5
S3158824002000EF03630000248800003082FD6304D037
S3158824003004670BB60BB40562031FE80F006D0AB478
S315882400400AB50BB6031FC40E00650AB2301904001C
S3158824005000DA0597049000EF03630065200000000A
S315882400600000308200003082400624880000000088
S3158824007004003082FC6305D0076206D1409C04675D
S3158824008023722B60245A0B6004721260055A03600B
S31588240090017214606110F94A025A5E60151025723D
S315882400A03360255A28612672486027724E60541018
S315882400B02DB3409B0A6C409A2CB54C102AB5809D4A
S315882400C02BB5409C016C3E1027B7C09F009E29B54E
S315882400D040E8016C016B28B20C1023B4609CC1984B
S315882400E0409BE29825B540EA016C21983521016B1D
S315882400F023B260C231101CB6A09EE298209DC19876
S3158824010020B540E9016C281017B18099E198C398E5
S31588240110409C1DB540EA016C609982F3086C519B1A
S3158824012040EA0065E09920F3049F40E80065142A94
S31588240130A099016C409D15B505100BB6209E016CBF
S31588240140409913B540EA0065071007B3E09B016C14
S31588240150409F10B540EAC19807970691059000EF0D
S3158824016004630065040030822004248834042488A7
S3158824017050042488080030826C042488090030823C
S3158824018090042488BC042488E8042488F4042488D5
S3158824019004052488F76311620FD010D154B0A0982F
S315882401A0209D54B540E9016C4098C0F2949A40EC5D
S315882401B000656098E0F2E49B40EF0065C098C0F241
S315882401C03C9E40E9006CA098E0F2509D40EA0F6C72
S315882401D0809849B5209C40E9016C609847B400F31F
S315882401E05C9B40EA0065092AC098016C409E44B508
S315882401F07610E09A119F40E8646C42B460A43CB2BD
S31588240200F823006D209A0BD520F34C990B0440EAE9
S315882402100A050068192A23101C6ED8E8209A0148F2
S3158824022012EFF1E462A4C0A4E1A404D3A3A405D55F
S3158824023064A4A54407D506D37BA433B508D34099AB
S3158824024040EA016CFF6ECCE83D6720F048A10B9408
S3158824025043E827B2E161A09A199D40E800650069C0
S3158824026023B0C0986741294B409E016CC36727B544
S3158824027040EA0CD3E098016C04D40C9320F3489F6D
S315882402808367016D056E40EA0F6F062AA098209D24
S315882402901FB540E9016C0810E098A1F3186C119FEA
S315882402A040E801490A71DC6111B0A098209D19B5EE
S315882402B040E9016CC09804F7106C519E40EA0065A9
S315882402C06098209B14B540E9016C809820F3409C63
S315882402D040EA0065062AE098016C409F0FB540EAFB
S315882402E00065119710910F9000EF096304003082FE
S315882402F01C0524884405248858052488640524886C
S315882403000900308278052488C4052488D40524885D
S31588240310E0052488EC052488F8052488FD6305628D
S3158824032004D008B040A001720561301965000065C3
S31588240330026B60C004B5809D119C40E8646CF117FB
S315882403400800308204003082FA630AD00B621AB01D
S31588240350A098006E19B31AB2016F1AB4C0C3C0C26A
S3158824036008D604D705D606D607D44B9D006D16B471
S3158824037002F0006F40EAC56714B340DB0EB080985C
S3158824038013B5539C016E809DCBEE40EA0805F62270
S3158824039030191D00089480980895599C40EA839DB5
S315882403A0C0980893599E40EA849BE098199F40E810
S315882403B00894E417040030820900308208003082C9
S315882403C0080624881D032488100030820C00308275
S315882403D0FB6308D00DB08098006E0DB5096204D6EB
S315882403E005D606D607D54B9C006D02F0006F09B456
S315882403F040EAC567609808B440DC499B40EA0065B2
S315882404000997089000EF0563040030821C06248827
S31588240410490324880C003082000000000000000074
S3158824042021214E4F2053494D20434152442564214E
S315882404302121210073797374656D20696E697469C5
S31588240440616C697A6520636F6D706C65746500006C
S315882404506E6574776F726B2072656769737465725B
S315882404602073756363657373000000004973206481
S3158824047069616C20737563636573733A25642C206C
S315882404806572726F7220636F64653A256400000012
S3158824049048616E672075702C69732072656D6F74D8
S315882404A0652068616E672075703A25642C2065728C
S315882404B0726F7220636F64653A256400526563653A
S315882404C069766520612063616C6C2C206E756D62FB
S315882404D065723A25732C206E756D626572207479DF
S315882404E070653A2564000000616E737765722066AC
S315882404F061696C00616E7377657220737563636551
S315882405007373000072656365697665642044544D07
S315882405104620746F6E653A25630000007374617291
S31588240520742043616C6C20746573742C20696E699D
S315882405307469616C697A6520617564696F206669F6
S31588240540727374007374617274206D616B65206133
S315882405502063616C6C00000030353434343336388B
S31588240560353600006D616B6520612063616C6C2073
S315882405706661696C65640000696E6465783A256489
S315882405802C646972656374696F6E3A25642C7374F6
S31588240590617475733A25642C6D6F64653A25642C69
S315882405A06D7074793A25642C6E756D6265723A25F8
S315882405B0732C6E756D62657220747970653A2564BC
S315882405C0000000006D616B6520612044544D463AD5
S315882405D02563000044544D46206661696C000000FA
S315882405E0736C65657020737461727400736C656549
S315882405F07020656E6400000068616E6720757020BF
S315882406006661696C000000005365636F6E642054CC
S31588240610657374205461736B000000004D61696EA4
S315882406202054657374205461736B000000000000A5
S315882406300000000000000000000000000000000008
S705882400113D
